{
  "contractName": "LendFlow",
  "abi": [
    {
      "anonymous": false,
      "inputs": [
        {
          "indexed": false,
          "internalType": "uint256",
          "name": "requestId",
          "type": "uint256"
        }
      ],
      "name": "LoanFulfilled",
      "type": "event"
    },
    {
      "anonymous": false,
      "inputs": [
        {
          "indexed": false,
          "internalType": "uint256",
          "name": "requestId",
          "type": "uint256"
        }
      ],
      "name": "LoanRepaid",
      "type": "event"
    },
    {
      "anonymous": false,
      "inputs": [
        {
          "indexed": false,
          "internalType": "uint256",
          "name": "requestId",
          "type": "uint256"
        },
        {
          "indexed": false,
          "internalType": "address",
          "name": "borrower",
          "type": "address"
        },
        {
          "indexed": false,
          "internalType": "uint256",
          "name": "amount",
          "type": "uint256"
        }
      ],
      "name": "LoanRequestCreated",
      "type": "event"
    },
    {
      "anonymous": false,
      "inputs": [
        {
          "indexed": false,
          "internalType": "address",
          "name": "account",
          "type": "address"
        },
        {
          "indexed": false,
          "internalType": "uint256",
          "name": "reputation",
          "type": "uint256"
        }
      ],
      "name": "ReputationUpdated",
      "type": "event"
    },
    {
      "inputs": [],
      "name": "loanRequestCount",
      "outputs": [
        {
          "internalType": "uint256",
          "name": "",
          "type": "uint256"
        }
      ],
      "stateMutability": "view",
      "type": "function",
      "constant": true
    },
    {
      "inputs": [
        {
          "internalType": "uint256",
          "name": "",
          "type": "uint256"
        }
      ],
      "name": "loanRequests",
      "outputs": [
        {
          "internalType": "address",
          "name": "borrower",
          "type": "address"
        },
        {
          "internalType": "uint256",
          "name": "amount",
          "type": "uint256"
        },
        {
          "internalType": "uint256",
          "name": "duration",
          "type": "uint256"
        },
        {
          "internalType": "uint256",
          "name": "interestRate",
          "type": "uint256"
        },
        {
          "internalType": "uint256",
          "name": "collateral",
          "type": "uint256"
        },
        {
          "internalType": "bool",
          "name": "isFulfilled",
          "type": "bool"
        },
        {
          "internalType": "bool",
          "name": "isRepaid",
          "type": "bool"
        }
      ],
      "stateMutability": "view",
      "type": "function",
      "constant": true
    },
    {
      "inputs": [
        {
          "internalType": "address",
          "name": "",
          "type": "address"
        }
      ],
      "name": "reputation",
      "outputs": [
        {
          "internalType": "uint256",
          "name": "",
          "type": "uint256"
        }
      ],
      "stateMutability": "view",
      "type": "function",
      "constant": true
    },
    {
      "inputs": [],
      "name": "reputationThreshold",
      "outputs": [
        {
          "internalType": "uint256",
          "name": "",
          "type": "uint256"
        }
      ],
      "stateMutability": "view",
      "type": "function",
      "constant": true
    },
    {
      "inputs": [
        {
          "internalType": "uint256",
          "name": "amount",
          "type": "uint256"
        },
        {
          "internalType": "uint256",
          "name": "duration",
          "type": "uint256"
        },
        {
          "internalType": "uint256",
          "name": "interestRate",
          "type": "uint256"
        },
        {
          "internalType": "uint256",
          "name": "collateral",
          "type": "uint256"
        }
      ],
      "name": "createLoanRequest",
      "outputs": [],
      "stateMutability": "nonpayable",
      "type": "function"
    },
    {
      "inputs": [
        {
          "internalType": "uint256",
          "name": "requestId",
          "type": "uint256"
        }
      ],
      "name": "fulfillLoanRequest",
      "outputs": [],
      "stateMutability": "nonpayable",
      "type": "function"
    },
    {
      "inputs": [
        {
          "internalType": "uint256",
          "name": "requestId",
          "type": "uint256"
        }
      ],
      "name": "repayLoan",
      "outputs": [],
      "stateMutability": "nonpayable",
      "type": "function"
    },
    {
      "inputs": [
        {
          "internalType": "address",
          "name": "account",
          "type": "address"
        },
        {
          "internalType": "uint256",
          "name": "reputationValue",
          "type": "uint256"
        }
      ],
      "name": "updateReputation",
      "outputs": [],
      "stateMutability": "nonpayable",
      "type": "function"
    },
    {
      "inputs": [],
      "name": "participateInGovernance",
      "outputs": [
        {
          "internalType": "bool",
          "name": "",
          "type": "bool"
        }
      ],
      "stateMutability": "view",
      "type": "function",
      "constant": true
    }
  ],
  "bytecode": "0x6080604052606460035534801561001557600080fd5b50611287806100256000396000f3fe608060405234801561001057600080fd5b50600436106100935760003560e01c8063cbbb3b0311610066578063cbbb3b031461011e578063d1b332f41461013c578063d410e8ba14610172578063e0f51be514610190578063f5c91a08146101ac57610093565b806395e188b114610098578063ab7b1c89146100b4578063b786f978146100d0578063b9f79451146100ee575b600080fd5b6100b260048036038101906100ad9190610a12565b6101c8565b005b6100ce60048036038101906100c99190610a79565b61043b565b005b6100d86105de565b6040516100e59190610ab5565b60405180910390f35b61010860048036038101906101039190610b2e565b6105e4565b6040516101159190610ab5565b60405180910390f35b6101266105fc565b6040516101339190610b76565b60405180910390f35b61015660048036038101906101519190610a79565b610648565b6040516101699796959493929190610ba0565b60405180910390f35b61017a6106c4565b6040516101879190610ab5565b60405180910390f35b6101aa60048036038101906101a59190610a79565b6106ca565b005b6101c660048036038101906101c19190610c0f565b6108a9565b005b6000841161020b576040517f08c379a000000000000000000000000000000000000000000000000000000000815260040161020290610cac565b60405180910390fd5b6000831161024e576040517f08c379a000000000000000000000000000000000000000000000000000000000815260040161024590610d3e565b60405180910390fd5b60008211610291576040517f08c379a000000000000000000000000000000000000000000000000000000000815260040161028890610dd0565b60405180910390fd5b600060648385876102a29190610e1f565b6102ac9190610e1f565b6102b69190610e90565b905080856102c49190610ec1565b9450600060015490506040518060e001604052803373ffffffffffffffffffffffffffffffffffffffff1681526020018781526020018681526020018581526020018481526020016000151581526020016000151581525060008083815260200190815260200160002060008201518160000160006101000a81548173ffffffffffffffffffffffffffffffffffffffff021916908373ffffffffffffffffffffffffffffffffffffffff1602179055506020820151816001015560408201518160020155606082015181600301556080820151816004015560a08201518160050160006101000a81548160ff02191690831515021790555060c08201518160050160016101000a81548160ff021916908315150217905550905050600160008154809291906103f390610ef5565b91905055507f0d97c32b6c6fbcf695510929722c1b627eb3d1e9ba7dcc059e7f85ec78a27eb681338860405161042b93929190610f3d565b60405180910390a1505050505050565b600080600083815260200190815260200160002090508060050160009054906101000a900460ff166104a2576040517f08c379a000000000000000000000000000000000000000000000000000000000815260040161049990610fe6565b60405180910390fd5b8060050160019054906101000a900460ff16156104f4576040517f08c379a00000000000000000000000000000000000000000000000000000000081526004016104eb90611052565b60405180910390fd5b3373ffffffffffffffffffffffffffffffffffffffff168160000160009054906101000a900473ffffffffffffffffffffffffffffffffffffffff1673ffffffffffffffffffffffffffffffffffffffff1614610586576040517f08c379a000000000000000000000000000000000000000000000000000000000815260040161057d906110e4565b60405180910390fd5b60018160050160016101000a81548160ff0219169083151502179055507f9a7851747cd7ffb3fe0a32caf3da48b31f27cebe131267051640f8b72fc47186826040516105d29190610ab5565b60405180910390a15050565b60015481565b60026020528060005260406000206000915090505481565b6000600354600260003373ffffffffffffffffffffffffffffffffffffffff1673ffffffffffffffffffffffffffffffffffffffff168152602001908152602001600020541015905090565b60006020528060005260406000206000915090508060000160009054906101000a900473ffffffffffffffffffffffffffffffffffffffff16908060010154908060020154908060030154908060040154908060050160009054906101000a900460ff16908060050160019054906101000a900460ff16905087565b60035481565b600080600083815260200190815260200160002090508060050160009054906101000a900460ff1615610732576040517f08c379a000000000000000000000000000000000000000000000000000000000815260040161072990611176565b60405180910390fd5b8060050160019054906101000a900460ff1615610784576040517f08c379a000000000000000000000000000000000000000000000000000000000815260040161077b90611052565b60405180910390fd5b600260003373ffffffffffffffffffffffffffffffffffffffff1673ffffffffffffffffffffffffffffffffffffffff16815260200190815260200160002060008154809291906107d490610ef5565b919050555060018160050160006101000a81548160ff0219169083151502179055507fdf6b6ceeed780f1be8d7c230d452b61db9a0d1ff2a904a20897e7a555178394f826040516108259190610ab5565b60405180910390a17ffc577563f1b9a0461e24abef1e1fcc0d33d3d881f20b5df6dda59de4aae2c82133600260003373ffffffffffffffffffffffffffffffffffffffff1673ffffffffffffffffffffffffffffffffffffffff1681526020019081526020016000205460405161089d929190611196565b60405180910390a15050565b8173ffffffffffffffffffffffffffffffffffffffff163373ffffffffffffffffffffffffffffffffffffffff1614610917576040517f08c379a000000000000000000000000000000000000000000000000000000000815260040161090e90611231565b60405180910390fd5b80600260003373ffffffffffffffffffffffffffffffffffffffff1673ffffffffffffffffffffffffffffffffffffffff168152602001908152602001600020819055507ffc577563f1b9a0461e24abef1e1fcc0d33d3d881f20b5df6dda59de4aae2c82133600260003373ffffffffffffffffffffffffffffffffffffffff1673ffffffffffffffffffffffffffffffffffffffff168152602001908152602001600020546040516109cb929190611196565b60405180910390a15050565b600080fd5b6000819050919050565b6109ef816109dc565b81146109fa57600080fd5b50565b600081359050610a0c816109e6565b92915050565b60008060008060808587031215610a2c57610a2b6109d7565b5b6000610a3a878288016109fd565b9450506020610a4b878288016109fd565b9350506040610a5c878288016109fd565b9250506060610a6d878288016109fd565b91505092959194509250565b600060208284031215610a8f57610a8e6109d7565b5b6000610a9d848285016109fd565b91505092915050565b610aaf816109dc565b82525050565b6000602082019050610aca6000830184610aa6565b92915050565b600073ffffffffffffffffffffffffffffffffffffffff82169050919050565b6000610afb82610ad0565b9050919050565b610b0b81610af0565b8114610b1657600080fd5b50565b600081359050610b2881610b02565b92915050565b600060208284031215610b4457610b436109d7565b5b6000610b5284828501610b19565b91505092915050565b60008115159050919050565b610b7081610b5b565b82525050565b6000602082019050610b8b6000830184610b67565b92915050565b610b9a81610af0565b82525050565b600060e082019050610bb5600083018a610b91565b610bc26020830189610aa6565b610bcf6040830188610aa6565b610bdc6060830187610aa6565b610be96080830186610aa6565b610bf660a0830185610b67565b610c0360c0830184610b67565b98975050505050505050565b60008060408385031215610c2657610c256109d7565b5b6000610c3485828601610b19565b9250506020610c45858286016109fd565b9150509250929050565b600082825260208201905092915050565b7f416d6f756e74206d7573742062652067726561746572207468616e207a65726f600082015250565b6000610c96602083610c4f565b9150610ca182610c60565b602082019050919050565b60006020820190508181036000830152610cc581610c89565b9050919050565b7f4475726174696f6e206d7573742062652067726561746572207468616e207a6560008201527f726f000000000000000000000000000000000000000000000000000000000000602082015250565b6000610d28602283610c4f565b9150610d3382610ccc565b604082019050919050565b60006020820190508181036000830152610d5781610d1b565b9050919050565b7f496e7465726573742072617465206d757374206265206772656174657220746860008201527f616e207a65726f00000000000000000000000000000000000000000000000000602082015250565b6000610dba602783610c4f565b9150610dc582610d5e565b604082019050919050565b60006020820190508181036000830152610de981610dad565b9050919050565b7f4e487b7100000000000000000000000000000000000000000000000000000000600052601160045260246000fd5b6000610e2a826109dc565b9150610e35836109dc565b9250828202610e43816109dc565b91508282048414831517610e5a57610e59610df0565b5b5092915050565b7f4e487b7100000000000000000000000000000000000000000000000000000000600052601260045260246000fd5b6000610e9b826109dc565b9150610ea6836109dc565b925082610eb657610eb5610e61565b5b828204905092915050565b6000610ecc826109dc565b9150610ed7836109dc565b9250828201905080821115610eef57610eee610df0565b5b92915050565b6000610f00826109dc565b91507fffffffffffffffffffffffffffffffffffffffffffffffffffffffffffffffff8203610f3257610f31610df0565b5b600182019050919050565b6000606082019050610f526000830186610aa6565b610f5f6020830185610b91565b610f6c6040830184610aa6565b949350505050565b7f4c6f616e207265717565737420686173206e6f74206265656e2066756c66696c60008201527f6c65642079657400000000000000000000000000000000000000000000000000602082015250565b6000610fd0602783610c4f565b9150610fdb82610f74565b604082019050919050565b60006020820190508181036000830152610fff81610fc3565b9050919050565b7f4c6f616e2068617320616c7265616479206265656e2072657061696400000000600082015250565b600061103c601c83610c4f565b915061104782611006565b602082019050919050565b6000602082019050818103600083015261106b8161102f565b9050919050565b7f4f6e6c792074686520626f72726f7765722063616e207265706179207468652060008201527f6c6f616e00000000000000000000000000000000000000000000000000000000602082015250565b60006110ce602483610c4f565b91506110d982611072565b604082019050919050565b600060208201905081810360008301526110fd816110c1565b9050919050565b7f4c6f616e20726571756573742068617320616c7265616479206265656e20667560008201527f6c66696c6c656400000000000000000000000000000000000000000000000000602082015250565b6000611160602783610c4f565b915061116b82611104565b604082019050919050565b6000602082019050818103600083015261118f81611153565b9050919050565b60006040820190506111ab6000830185610b91565b6111b86020830184610aa6565b9392505050565b7f596f752063616e206f6e6c792075706461746520796f7572206f776e2072657060008201527f75746174696f6e00000000000000000000000000000000000000000000000000602082015250565b600061121b602783610c4f565b9150611226826111bf565b604082019050919050565b6000602082019050818103600083015261124a8161120e565b905091905056fea264697066735822122043a3829a5bd736dbb30a12e527dfa39f4f5459c55186987ec4ace84bc018483164736f6c63430008130033",
  "immutableReferences": {},
  "source": "//SPDX-License-Identifier:MIT\npragma solidity ^0.8.0;\n\ncontract LendFlow {\n    struct LoanRequest {\n        address borrower;\n        uint256 amount;\n        uint256 duration;\n        uint256 interestRate;\n        uint256 collateral;\n        bool isFulfilled;\n        bool isRepaid;\n    }\n\n    mapping(uint256 => LoanRequest) public loanRequests;\n    uint256 public loanRequestCount;\n\n    mapping(address => uint256) public reputation;\n    uint256 public reputationThreshold = 100; // Minimum reputation required for governance participation\n\n    event LoanRequestCreated(uint256 requestId, address borrower, uint256 amount);\n    event LoanFulfilled(uint256 requestId);\n    event LoanRepaid(uint256 requestId);\n    event ReputationUpdated(address account, uint256 reputation);\n\n    function createLoanRequest(uint256 amount, uint256 duration, uint256 interestRate, uint256 collateral) external {\n        require(amount > 0, \"Amount must be greater than zero\");\n        require(duration > 0, \"Duration must be greater than zero\");\n        require(interestRate > 0, \"Interest rate must be greater than zero\");\n        uint256 interestAmount = (amount * duration * interestRate) / 100;\n        amount += interestAmount;\n\n        uint256 requestId = loanRequestCount;\n        loanRequests[requestId] = LoanRequest(msg.sender, amount, duration, interestRate, collateral, false, false);\n        loanRequestCount++;\n\n        emit LoanRequestCreated(requestId, msg.sender, amount);\n    }\n\n    function fulfillLoanRequest(uint256 requestId) external {\n        LoanRequest storage loanRequest = loanRequests[requestId];\n        require(!loanRequest.isFulfilled, \"Loan request has already been fulfilled\");\n        require(!loanRequest.isRepaid, \"Loan has already been repaid\");\n        //require(loanRequest.borrower != msg.sender, \"You cannot fulfill your own loan request\");\n\n        // Additional checks on lender's eligibility, available funds, and collateral value can be added here\n\n        // Calculate interest based on loan amount and duration\n\n        // Transfer loan amount + interest from lender to borrower\n        // Implement the transfer function specific to your token or currency\n\n        // Update reputation for the lender based on successful loan fulfillment\n        reputation[msg.sender]++;\n\n        loanRequest.isFulfilled = true;\n        emit LoanFulfilled(requestId);\n        emit ReputationUpdated(msg.sender, reputation[msg.sender]);\n    }\n\n    function repayLoan(uint256 requestId) external {\n        LoanRequest storage loanRequest = loanRequests[requestId];\n        require(loanRequest.isFulfilled, \"Loan request has not been fulfilled yet\");\n        require(!loanRequest.isRepaid, \"Loan has already been repaid\");\n        require(loanRequest.borrower == msg.sender, \"Only the borrower can repay the loan\");\n\n        // Additional checks on repayment amount and handling can be added here\n\n        // Transfer repayment amount from borrower to lender\n        // Implement the transfer function specific to your token or currency\n\n        loanRequest.isRepaid = true;\n        emit LoanRepaid(requestId);\n    }\n\n    function updateReputation(address account, uint256 reputationValue) external {\n        require(msg.sender == account, \"You can only update your own reputation\");\n\n        reputation[msg.sender] = reputationValue;\n        emit ReputationUpdated(msg.sender, reputation[msg.sender]);\n    }\n\n    function participateInGovernance() external view returns (bool) {\n        return reputation[msg.sender] >= reputationThreshold;\n    }\n}\n",
  "sourcePath": "C:\\Users\\Admin\\Desktop\\SSOC\\Hackathon\\LendFlow-web\\contracts\\LendFlow.sol",
  "compiler": {
    "name": "solc",
    "version": "0.8.19+commit.7dd6d404.Emscripten.clang"
  },
  "schemaVersion": "3.4.13",
  "updatedAt": "2023-05-14T21:14:42.726Z",
  "networkType": "ethereum",
  "devdoc": {
    "kind": "dev",
    "methods": {},
    "version": 1
  },
  "userdoc": {
    "kind": "user",
    "methods": {},
    "version": 1
  }
}